:04000000DEEF18F027
:100600003C04429F6A429001424DBB40EC473E8E03
:100610001FBB3C04425A8B420444429C4F41008021
:100620003F00600E000100018825000100018C6F71
:10063000F00E00010001892100018D6FFF0E000105
:1006400000018A2100018E6FFF0E000100018B2145
:1006500000018F6F0C0E146E8CC005F08DC006F07B
:100660008EC007F08FC008F08CC001F08DC002F082
:100670008EC003F08FC004F02EEC1AF0146601D087
:1006800007D004340432033202320132142EF6D77A
:1006900004C028F003C027F002C026F001C025F0F6
:1006A0000B0E146E0001AAC001F00001ABC002F0F5
:1006B000000E02BEFF0E036E046E25C005F026C0BC
:1006C00006F027C007F028C008F02EEC1AF01466D8
:1006D00001D007D004340432033202320132142E26
:1006E000F6D704C030F003C02FF002C02EF001C0D6
:1006F0002DF00B0E146E00019EC001F000019FC092
:1007000002F0000E02BEFF0E036E046E8CC005F0F8
:100710008DC006F08EC007F08FC008F02EEC1AF0E6
:10072000146601D007D0043404320332023201329D
:10073000142EF6D704C02CF003C02BF002C02AF010
:1007400001C029F029502D24216E2A502E20226E1E
:100750002B502F20236E2C503020246E00019CC083
:1007600014F000019DC015F0D89014361536D890BD
:100770001436153614C016F015C017F0000E17BE4B
:10078000FF0E186E196E215016241A6E2250172073
:100790001B6E235018201C6E245019201D6E020E53
:1007A000D8901A361B361C361D36E82EF9D7020EA5
:1007B0001A24016E000E1B20026E000E1C20036E18
:1007C000000E1D20046E040E056E000E066E000E57
:1007D000076E000E086E55EC13F004C083F003C0E2
:1007E00082F002C081F001C080F00D0E146E000195
:1007F000A0C001F00001A1C002F0000E02BEFF0E79
:10080000036E046E8CC005F08DC006F08EC007F03C
:100810008FC008F02EEC1AF0146601D007D0043413
:100820000432033202320132142EF6D704C030F003
:1008300003C02FF002C02EF001C02DF00C0E146E7C
:100840008CC005F08DC006F08EC007F08FC008F098
:100850008CC001F08DC002F08EC003F08FC004F098
:100860002EEC1AF0146601D007D00434043203329F
:1008700002320132142EF6D704C028F003C027F04C
:1008800002C026F001C025F00001A8C001F000015F
:10089000A9C002F0000E02BEFF0E036E046E25C05A
:1008A00005F026C006F027C007F028C008F02EEC9F
:1008B0001AF003C029F004C02AF02B6A2C6A020E39
:1008C000146E29502D24156E2A502E20166E2B5092
:1008D0002F20176E2C503020186E020E1524196E22
:1008E000000E16201A6E000E17201B6E000E182028
:1008F0001C6E146601D007D01C341C321B321A3215
:100900001932142EF6D71CC024F01BC023F01AC0D5
:1009100022F019C021F0000E2124016E800E222049
:10092000026E000E2320036E000E2420046E0001D0
:10093000A2C005F00001A3C006F0076A086A2EEC09
:100940001AF0100E05D0D890043203320232013270
:10095000E82EF9D704C087F003C086F002C085F006
:1009600001C084F0000180C014F0000181C015F0C6
:10097000000182C016F0000183C017F0141E151E7E
:10098000161E171E142A000E1522162217221050AA
:100990001424016E11501520026E000E1620036EF5
:1009A000000E1720046ED40E056E300E066E000E7B
:1009B000076E000E086E2EEC1AF004C093F003C010
:1009C00092F002C091F001C090F0000E0001000111
:1009D000905D000E00019159000E00019259800EA9
:1009E000000100019359D8B01CD0D890000100013B
:1009F0009035016E000100019135026E0001000189
:100A00009235036E000100019335046E84C005F039
:100A100085C006F086C007F087C008F03DEC17F0EF
:100A200017D090C001F091C002F092C003F093C0C3
:100A300004F084C005F085C006F086C007F087C0CA
:100A400008F03DEC17F0D890043203320232013244
:100A500004C034F003C033F002C032F001C031F002
:100A600032C014F033C015F034C016F0176A16BE49
:100A7000176817C004F016C003F015C002F014C0C8
:100A800001F032C018F033C019F034C01AF01B6AFC
:100A90001ABE1B681BC008F01AC007F019C006F088
:100AA00018C005F02EEC1AF004C030F003C02FF08F
:100AB00002C02EF001C02DF02DC001F02EC002F0BA
:100AC0002FC003F030C004F0DE0E056E0B0E066E74
:100AD000000E076E000E086E2EEC1AF003C02DF00B
:100AE00004C02EF02F6A306A31C001F032C002F02B
:100AF00033C003F034C004F0430E056EE30E066EFF
:100B0000FF0E076EFF0E086E2EEC1AF003C029F0E0
:100B100004C02AF02B6A2C6A040E146E29502D246E
:100B2000156E2A502E20166E2B502F20176E2C502B
:100B30003020186E31501524196E325016201A6E5E
:100B4000335017201B6E345018201C6E830E19244E
:100B50001D6E0F0E1A201E6E000E1B201F6E000E43
:100B60001C20206E146601D007D0203420321F32A2
:100B70001E321D32142EF6D720C034F01FC033F0C1
:100B80001EC032F01DC031F031C010F032C011F083
:100B900033C012F034C013F01200F28EF28CF28ADD
:100BA000F294F290F18EF1849D8A9D809F9A9F909D
:100BB000D08E600E9216170E9212C40E936EF00E27
:100BC000946E100E806E000E816E000E826E3BECF5
:100BD0001DF0FCEC09F0EBC009F0ECC00AF065EC8C
:100BE00010F0EBC012F0ECC013F0D6EC0FF0D6EC26
:100BF00008F00001C36FC10E016E0001C351000176
:100C0000C46F060E026E0001C4510001C56F0F0EC5
:100C1000036E0001C551D5EC19F0DAEC1AF087EC3F
:100C200015F004EC1BF01EEC16F0EFC037F0F0C02E
:100C300038F0A9EC18F048EC1DF092EC1BF0F3C072
:100C400013F0F4C014F045EC0FF00001C36F480E30
:100C50000F6E0001C3519AEC1DF00001C36F690EC5
:100C60000F6E0001C3519AEC1DF00001C36F210EFD
:100C70000F6E0001C3519AEC1DF0D0B611D0D08692
:100C80000001C36F570E106E0001C3517EEC1CF0C3
:100C90000001C36F570E046E0001C351FBEC11F04D
:100CA000F3C01BF0F4C01CF038EC15F068EC1DF03C
:100CB00000010001B86702D083EC1DF021EE42F084
:100CC00010EED8F00D0EDECFE6FFE82EFCD721EEB9
:100CD00030F010EEC6F0120EDECFE6FFE82EFCD7A5
:100CE000929048EC1DF00001C36FD90E016E000117
:100CF000C3510001C46F0F0E026E0001C451000108
:100D0000C56F0B0E036E0001C551D5EC19F00A0E2C
:100D1000C16EEBC009F0ECC00AF065EC10F0EBC05E
:100D200012F0ECC013F0D6EC0FF0EFC037F0F0C0CB
:100D300038F0A9EC18F0F1C07BF0F2C07CF0C1EC07
:100D400013F0BFEC1CF00001C36F000E016E000138
:100D5000C35153EC1DF00001000E116E0001D80EBE
:100D6000106E2DEC1CF080800001C36F8F0E016EA1
:100D70000001C3515EEC1DF0BAEC1DF0B7EC1DF0A4
:100D80000009D8A4FBD7B2EC1DF001C0E5F002C009
:100D9000E6F0E5C007F0E6C008F0030E0A6EE80EC4
:100DA000096E03EC1AF00750300F0F6E9AEC1DF02D
:100DB000030E046EE80E036EE5C001F0E6C002F01B
:100DC0002CEC1BF001C007F002C008F0000E0A6E08
:100DD000640E096E03EC1AF00750300F0F6E9AEC98
:100DE0001DF0000E046E640E036EE5C001F0E6C057
:100DF00002F02CEC1BF001C007F002C008F0000E5E
:100E00000A6E0A0E096E03EC1AF00750300F0F6ECF
:100E10009AEC1DF0E5C001F0E6C002F0000E046E91
:100E20000A0E036E2CEC1BF00150300F0F6E9AEC83
:100E30001DF00001000E116E0001C60E106E2DECAB
:100E40001CF00001C36F970E016E0001C3515EECF0
:100E50001DF0BAEC1DF0B7EC1DF00009D8A4FBD7CB
:100E6000B2EC1DF001C0E7F002C0E8F0E7C007F007
:100E7000E8C008F0030E0A6EE80E096E03EC1AF0E3
:100E80000750300F0F6E9AEC1DF0030E046EE80E43
:100E9000036EE7C001F0E8C002F02CEC1BF001C0CB
:100EA00007F002C008F0000E0A6E640E096E03EC33
:100EB0001AF00750300F0F6E9AEC1DF0000E046E02
:100EC000640E036EE7C001F0E8C002F02CEC1BF0EA
:100ED00001C007F002C008F0000E0A6E0A0E096E8B
:100EE00003EC1AF00750300F0F6E9AEC1DF0E7C0BC
:100EF00001F0E8C002F0000E046E0A0E036E2CEC46
:100F00001BF00150300F0F6E9AEC1DF08090000125
:100F1000C36F000E016E0001C35153EC1DF00001C0
:100F2000C36F0A0E0F6E0001C3519AEC1DF0F1D68B
:100F3000000E0C6E800E0D6E3F0E0E6E5BC015F037
:100F40005CC016F05DC017F071EC1BF017C011F01B
:100F500016C010F015C00FF0AFEC16F0D8B00ED0E0
:100F6000000E00010001B36F210E0001B26F000EF0
:100F70005B6E000E5C6E000E5D6E17D1000E5E6E35
:100F8000800E5F6E3F0E606E5BC020F05CC021F093
:100F90005DC022F05BC01DF05CC01EF05DC01FF0A4
:100FA000F4EC10F01FC00BF01EC00AF01DC009F0D9
:100FB000D2EC1CF00BC030F00AC02FF009C02EF0AC
:100FC000000E316E800E326E3F0E336E0BEC0BF066
:100FD00030C063F02FC062F02EC061F061C047F0F6
:100FE00062C048F063C049F0D1EC0CF049C06CF02D
:100FF00048C06BF047C06AF05BC015F05CC016F0EB
:101000005DC017F071EC1BF017C00EF016C00DF0AC
:1010100015C00CF0C30E0F6E350E106E3F0E116E24
:10102000AFEC16F0D8B023D05BC01DF05CC01EF052
:101030005DC01FF06AC020F06BC021F06CC022F0D0
:101040007CEC11F01FC06FF01EC06EF01DC06DF083
:101050006DC04BF06EC04CF06FC04DF0F1EC0BF07A
:101060004DC05DF04CC05CF04BC05BF09ED05D505D
:10107000800A800F05E1000E5C5C02E1000E5B5C03
:10108000D8B055D05BC020F05CC021F05DC022F02C
:101090006AC009F06BC00AF06CC00BF0D2EC1CF017
:1010A0000BC01FF00AC01EF009C01DF07CEC11F04F
:1010B0001FC06FF01EC06EF01DC06DF06DC04BF014
:1010C0006EC04CF06FC04DF0F1EC0BF04DC069F00C
:1010D0004CC068F04BC067F0100E316EC90E326E16
:1010E0003F0E336E67C009F068C00AF069C00BF0AC
:1010F000D2EC1CF00BC030F00AC02FF009C02EF06B
:101100000BEC0BF030C066F02FC065F02EC064F021
:1011100064C009F065C00AF066C00BF0D2EC1CF0A8
:101120000BC05DF00AC05CF009C05BF03ED05BC054
:1011300020F05CC021F05DC022F06AC01DF06BC0E1
:101140001EF06CC01FF07CEC11F01FC06FF01EC0D1
:101150006EF01DC06DF06DC04BF06EC04CF06FC0F6
:101160004DF0F1EC0BF04DC069F04CC068F04BC095
:1011700067F067C009F068C00AF069C00BF0D2ECF4
:101180001CF00BC030F00AC02FF009C02EF0100E7A
:10119000316EC90E326E3F0E336E0BEC0BF030C069
:1011A0005DF02FC05CF02EC05BF012004E6EAA0EF8
:1011B000026E4E50F7EC16F002C09CF003C09DF09A
:1011C0004E6EAC0E026E4E50F7EC16F002C09EF062
:1011D00003C09FF04E6EAE0E026E4E50F7EC16F04E
:1011E00002C0A0F003C0A1F04E6EB00E026E4E50D1
:1011F000F7EC16F002C0A2F003C0A3F04E6EB20EE0
:10120000026E4E50F7EC16F002C0A4F003C0A5F039
:101210004E6EB40E026E4E50F7EC16F002C0A6F001
:1012200003C0A7F04E6EB60E026E4E50F7EC16F0ED
:1012300002C0A8F003C0A9F04E6EB80E026E4E5068
:10124000F7EC16F002C0AAF003C0ABF04E6EBA0E77
:10125000026E4E50F7EC16F002C0ACF003C0ADF0D9
:101260004E6EBC0E026E4E50F7EC16F002C0AEF0A1
:1012700003C0AFF04E6EBE0E026E4E50F7EC16F08D
:1012800002C0B0F003C0B1F084EC1AF081A8FED720
:101290004E6EF60E026E4E50F7EC16F002C057F08E
:1012A00003C058F059EC1AF081A8FED74E6EF60E26
:1012B000026E4E50F7EC16F002C055F003C056F027
:1012C00057C010F058C011F085EC0DF055C010F06B
:1012D00056C011F011EC03F013C05CF012C05BF0CB
:1012E00011C05AF010C059F059C010F05AC011F096
:1012F0005BC012F05CC013F080EC17F012C01FF05E
:1013000011C01EF010C01DF0980E206EFC0E216E54
:10131000450E226E7CEC11F01FC051F01EC050F043
:101320001DC04FF059C010F05AC011F05BC012F050
:101330005CC013F080EC17F012C01FF011C01EF05B
:1013400010C01DF0100E206E800E216E3F0E226E1A
:101350007CEC11F01FC054F01EC053F01DC052F0C1
:1013600052C031F053C032F054C033F0900E206EB2
:10137000E20E216E460E226E4FC01DF050C01EF0D0
:1013800051C01FF0F4EC10F01FC030F01EC02FF061
:101390001DC02EF00BEC0BF030C00BF02FC00AF08C
:1013A0002EC009F0E5EC12F00CC09BF00BC09AF0D7
:1013B0000AC099F009C098F0000E00010001946F76
:1013C000000E0001956F000E0001966F000E0001E7
:1013D000976F59C03CF05AC03DF05BC03EF05CC016
:1013E0003FF0B1EC0EF03FC097F03EC096F03DC02C
:1013F00095F03CC094F01200056E040E026E05508C
:10140000066E2B0E036E065063EC1CF0056E050E87
:10141000026E0550066E5C0E036E065063EC1CF007
:10142000056E280E026E0550066E860E036E06507F
:1014300063EC1CF0056E320E026E0550066E0C0E4B
:10144000036E065063EC1CF0056E330E026E055001
:10145000066EE40E036E065063EC1CF0056E360E4D
:10146000026E0550066E0C0E036E065063EC1CF007
:10147000056E370E026E0550066EE40E036E0650C2
:1014800063EC1CF0056E380E026E0550066E080EF9
:10149000036E065063EC1CF0056E390E026E0550AB
:1014A000066E980E036E065063EC1CF0056E3A0E45
:1014B000026E0550066E310E036E065063EC1CF092
:1014C000056E3B0E026E0550066E380E036E06501A
:1014D00063EC1CF0056E3E0E026E0550066E3A0E71
:1014E000036E065063EC1CF0056E3F0E026E055055
:1014F000066E980E036E065063EC1CF0056E510EDE
:10150000026E0550066E000E036E065063EC1CF072
:10151000056E520E026E0550066E320E036E0650B8
:1015200063EC1CF0056E5B0E026E0550066E420EFB
:10153000036E065063EC1CF0056E5C0E026E0550E7
:10154000066E680E036E065063EC1CF0056E5D0EB1
:10155000026E0550066E000E036E065063EC1CF022
:10156000056E5E0E026E0550066E320E036E06505C
:1015700063EC1CF0056E630E026E0550066E100ED5
:10158000036E065063EC1CF0056E640E026E05508F
:10159000066E680E036E065063EC1CF0056E650E59
:1015A000026E0550066E0B0E036E065063EC1CF0C7
:1015B000056E660E026E0550066E860E036E0650B0
:1015C00063EC1CF0056E670E026E0550066E310E60
:1015D000036E065063EC1CF0056E680E026E05503B
:1015E000066E380E036E065063EC1CF0056E6B0E33
:1015F000026E0550066E320E036E065063EC1CF050
:10160000056E6C0E026E0550066EC80E036E065017
:1016100063EC1CF012000F0E346E2EC035F02FC09C
:1016200036F030C037F03428386E04D0D8903732D6
:1016300036323532382EFAD735503B6E0F0E346EB7
:1016400031C035F032C036F033C037F03428386E50
:1016500004D0D890373236323532382EFAD735505A
:101660003A6E3B50D8B40BD03A503B600FD03B5051
:1016700000083A24346E190E345CD8A007D031C06B
:101680002EF032C02FF033C030F0AAD03A50D8B488
:101690000BD03B503A600FD03A5000083B24346ED8
:1016A000190E345CD8A007D02EC02EF02FC02FF01A
:1016B00030C030F095D0346E060E396E345030BEE6
:1016C000398E33BE398C2F8EFF0E2E16FF0E2F163D
:1016D000000E3016328EFF0E3116FF0E3216000E3F
:1016E00033163A503B6018D0D89031363236333604
:1016F0003A063A503B18D8B40BD039063950070B8C
:10170000D8B406D0F1D7D89030322F322E323B2ABF
:101710003A503B62F8D71AD03B503A6017D0D89075
:101720002E362F3630363B063A503B18D8B40BD005
:1017300039063950070BD8B406D0F1D7D8903332D8
:10174000323231323A2A3A503B62F8D739AE0CD0B5
:10175000FF0E2E1AFF0E2F1AFF0E301A010E2E2624
:10176000000E2F22000E302239AC0CD0FF0E311AA1
:10177000FF0E321AFF0E331A010E3126000E3222EE
:10178000000E3322346E000E396E34502E50312646
:101790002F5032223050332233AE10D0FF0E311A88
:1017A000FF0E321AFF0E331A010E3126000E3222BE
:1017B000000E3322346E010E396E345031C001F008
:1017C00032C002F033C003F03BC004F039C005F072
:1017D0002AEC14F003C030F002C02FF001C02EF04C
:1017E00012004BC015F04CC016F04DC017F071EC54
:1017F0001BF017C05AF016C059F015C058F07F0EF4
:101800005A1459105810D8A407D0000E4B6E000E71
:101810004C6E000E4D6EC4D0000E0C6E800E0D6E20
:101820003F0E0E6E58C00FF059C010F05AC011F0A4
:10183000AFEC16F0D8B002D0010E01D0000E546EFD
:101840005450D8B414D0000E1D6E800E1E6E3F0E84
:101850001F6E58C020F059C021F05AC022F07CEC15
:1018600011F01FC05AF01EC059F01DC058F058C0EA
:101870001DF059C01EF05AC01FF058C020F059C0CA
:1018800021F05AC022F0F4EC10F01FC057F01EC037
:1018900056F01DC055F055C03CF056C03DF057C045
:1018A0003EF0060E406E120E3F6E000E426E040EAB
:1018B000416E74EC12F03EC050F03DC04FF03CC0A1
:1018C0004EF055C03CF056C03DF057C03EF0060EFD
:1018D000406E000E3F6E000E426E050E416E74ECBF
:1018E00012F03EC053F03DC052F03CC051F0000E2B
:1018F0002F6E580E2E6E4EC020F04FC021F050C0FB
:1019000022F051C01DF052C01EF053C01FF07CECFD
:1019100011F01FC032F01EC031F01DC030F0F2ECEB
:101920001BF05450D8B41CD058C009F059C00AF06C
:101930005AC00BF0D2EC1CF00BC030F00AC02FF0F4
:1019400009C02EF0100E316EC90E326E3F0E336E8E
:101950000BEC0BF030C05AF02FC059F02EC058F0ED
:101960004D50800A800F05E1000E4C5C02E1000E34
:101970004B5CD8A007D058C04BF059C04CF05AC0AF
:101980004DF00ED058C009F059C00AF05AC00BF003
:10199000D2EC1CF00BC04DF00AC04CF009C04BF06B
:1019A0001200000E0C6E000E0D6E000E0E6E47C083
:1019B0000FF048C010F049C011F0AFEC16F0D8A0FD
:1019C00019D04950800A800F05E1000E485C02E101
:1019D000000E475CD8B007D0000E00010001B36FC5
:1019E000210E0001B26F000E476E000E486E000E11
:1019F000496E8AD047C050F048C051F049C052F0FB
:101A000047C04AF048C04BF049C04CF04A1E4B1E3C
:101A10004C1E4A2A000E4B224C22C80E4A24576EF6
:101A20006E0E4B20586EBE0E4C20596ED890593217
:101A300058325732000E505E800E515A000E525AE4
:101A40004A6E040E536E4A5057C04DF058C04EF0C7
:101A500059C04FF057C01DF058C01EF059C01FF0BC
:101A600050C020F051C021F052C022F0F4EC10F030
:101A70001FC056F01EC055F01DC054F0000E2F6E52
:101A8000540E2E6E57C030F058C031F059C032F0AD
:101A9000F2EC1BF0000E2F6E540E2E6E57C030F07D
:101AA00058C031F059C032F0F2EC1BF0000E2F6E2E
:101AB000570E2E6E000E306EC00E316E3F0E326E1F
:101AC000F2EC1BF0000E436E570E426E54C044F011
:101AD00055C045F056C046F0D4EC1BF0532EB4D799
:101AE00057C01DF058C01EF059C01FF047C020F06D
:101AF00048C021F049C022F0F4EC10F01FC049F0BA
:101B00001EC048F01DC047F012000001A6C012F030
:101B10000001A7C013F0121E131E124A132A105000
:101B20001224016E11501320026EA4C003F0A5C050
:101B300004F010EC1CF00F0E146ED890023201323B
:101B4000142EFBD701C020F002C021F0226A236AC4
:101B50000001AEC012F00001AFC013F00B0ED89020
:101B600012361336E82EFBD712C001F013C002F074
:101B7000000E02BEFF0E036E046E0001B0C014F032
:101B80000001B1C015F0000E15BEFF0E166E176EE7
:101B900020501424056E21501520066E2250162068
:101BA000076E23501720086E55EC13F004C01FF089
:101BB00003C01EF002C01DF001C01CF01C50202408
:101BC00000010001886F1D5021200001896F1E5007
:101BD000222000018A6F1F50232000018B6F040E0A
:101BE000126E080E000100018825136E000E000120
:101BF00000018921146E000E000100018A21156E7A
:101C0000000E000100018B21166E126601D007D074
:101C100016341632153214321332122EF6D716C07D
:101C20001BF015C01AF014C019F013C018F018C03A
:101C300010F019C011F012003AEC18F00AC076F05A
:101C40000BC077F076C072F077C073F0721E731E0F
:101C5000724A732A00010001E9517224766E000174
:101C60000001EA517320776E76C018F077C019F042
:101C70004FEC1BF01AC01FF019C01EF018C01DF069
:101C8000C50E206E2D0E216E430E226E7CEC11F0DF
:101C90001FC07AF01EC079F01DC078F0000E0C6EE7
:101CA000800E0D6E3F0E0E6E78C00FF079C010F0F2
:101CB0007AC011F0AFEC16F078C00CF079C00DF0DE
:101CC0007AC00EF0000E0F6E800E106EBF0E116EF9
:101CD000AFEC16F078C05BF079C05CF07AC05DF0D4
:101CE00098EC07F05DC07AF05CC079F05BC078F0EA
:101CF00078C01DF079C01EF07AC01FF02F0E206E44
:101D0000650E216E420E226EF4EC10F01FC07AF0C8
:101D10001EC079F01DC078F078C01DF079C01EF0AB
:101D20007AC01FF0000E206EC80E216E420E226E89
:101D3000F4EC10F01FC07AF01EC079F01DC078F0EE
:101D400078C009F079C00AF07AC00BF0E5EC12F027
:101D500009C074F00AC075F074C070F075C071F0FD
:101D6000120098C005F099C006F09AC007F09BC019
:101D700008F03CC001F03DC002F03EC003F03FC09F
:101D800004F055EC13F004C013F003C012F002C0CD
:101D900011F001C010F080EC17F012C046F011C035
:101DA00045F010C044F0980E316E070E326E460EAC
:101DB000336EA30E206E070E216EC60E226E44C037
:101DC0001DF045C01EF046C01FF0F4EC10F01FC01F
:101DD00030F01EC02FF01DC02EF00BEC0BF030C009
:101DE00049F02FC048F02EC047F0000E206EC80EFC
:101DF000216E420E226E47C01DF048C01EF049C041
:101E00001FF0F4EC10F01FC00BF01EC00AF01DC054
:101E100009F0E5EC12F00CC04DF00BC04CF00AC01C
:101E20004BF009C04AF0480E000100019425406EB5
:101E3000710E000100019521416E000E00010001AC
:101E40009621426E000E000100019721436E401E54
:101E5000411E421E431E402A000E412242224322BE
:101E60004A5040244A6E4B5041204B6E4C50422009
:101E70004C6E4D5043204D6E4AC03CF04BC03DF07F
:101E80004CC03EF04DC03FF0120011EC19F0156E41
:101E9000560E106E1550166E520E116E16507AECCC
:101EA0001DF044EC19F013C0D9FF14C0DAFF02C0D2
:101EB000DEFF03C0DEFF04C0DEFF05C0DDFFD90684
:101EC000D906156E480E106E1550166E560E116E10
:101ED00016507AEC1DF004EC1DF020EE04F01350C7
:101EE000D9261450DA2202C0DEFF03C0DDFF156ED2
:101EF000430E106E1550166E4B0E116E16507AEC86
:101F00001DF044EC19F020EE06F01350D9261450C1
:101F1000DA2202C0DEFF03C0DEFF04C0DEFF05C020
:101F2000DDFFD906D906156E450E106E1550166EDA
:101F3000520E116E16507AEC1DF004EC1DF020EEDE
:101F40000AF01350D9261450DA2202C0DEFF03C073
:101F5000DDFF156E540E106E1550166E500E116E7C
:101F600016507AEC1DF004EC1DF020EE0CF013502E
:101F7000D9261450DA2202C0DEFF03C0DDFF156E41
:101F8000250E106E1550166E560E116E16507AEC08
:101F90001DF004EC1DF020EE0EF01350D926145065
:101FA000DA2202C0DEFF03C0DDFF1200146E000E55
:101FB000166E145020EE0EF01250D9261350DA226D
:101FC000DECF14F0DDCF15F015AE03D0146E430E46
:101FD0006ED020EE0EF01250D9261350DA22DECF4A
:101FE00014F0DDCF15F015AC03D0146E460E5FD0A3
:101FF00020EE0EF01250D9261350DA22DECF14F064
:10200000DDCF15F015A803D0146E450E50D020EE8C
:102010000EF01250D9261350DA22DECF14F0DDCFA5
:1020200015F015B60FD020EE0AF01250D926135035
:10203000DA22DE52DD50800A740F9F0ED8B4DF5CC6
:10204000D8A003D0146E540E32D020EE0EF01250F1
:10205000D9261350DA22DECF14F0DDCF15F015A209
:1020600003D0146E4C0E23D020EE0EF01250D92661
:102070001350DA22DECF14F0DDCF15F015A003D017
:10208000146E5A0E14D020EE0AF01250D9261350B6
:10209000DA22DE52DD50800A770FFC0ED8B4DF5C06
:1020A000D8B003D0146E550E02D0146E000E166E0A
:1020B00014501650D8B408D016C010F07EEC1CF0A6
:1020C00016C004F0FBEC11F012000B6E0F0E026E46
:1020D0000B5073EC18F020EE0CF00950D9260A5082
:1020E000DA2202C0DEFF03C0DDFF0B6E3F0E026E80
:1020F0000B5073EC18F009C0D9FF0AC0DAFF02C018
:10210000DEFF03C0DDFF0B6E3E0E026E0B5073EC64
:1021100018F020EE02F00950D9260A50DA2202C047
:10212000DEFF03C0DDFF0B6E3D0E026E0B5073EC45
:1021300018F020EE04F00950D9260A50DA2202C025
:10214000DEFF03C0DDFF0B6E0A0E026E0B5073EC58
:1021500018F020EE06F00950D9260A50DA2202C003
:10216000DEFF03C0DDFF0B6E0B0E026E0B5073EC37
:1021700018F020EE08F00950D9260A50DA2202C0E1
:10218000DEFF03C0DDFF0B6E160E026E0B5073EC0C
:1021900018F020EE0EF00950D9260A50DA2202C0BB
:1021A000DEFF03C0DDFF0B6E080E026E0B5073ECFA
:1021B00018F020EE0AF00950D9260A50DA2202C09F
:1021C000DEFF03C0DDFF0B6E060E026E0B5073ECDC
:1021D00018F020EE10F00950D9260A50DA2202C079
:1021E000DEFF03C0DDFF12000F0E236E1DC024F0C2
:1021F0001EC025F01FC026F02328276E04D0D890DB
:10220000263225322432272EFAD72450286E28660B
:1022100001D015D00F0E236E20C024F021C025F070
:1022200022C026F02328276E04D0D89026322532EB
:102230002432272EFAD724502D6E2D6607D0000E9B
:102240001D6E000E1E6E000E1F6E55D02D507B0FA2
:1022500028261FC02DF022502D1A800E2D161E8EFE
:10226000218EFF0E2016FF0E2116000E2216000EE4
:10227000296E000E2A6E000E2B6E236E070E2C6E3A
:1022800023501DA006D02050292621502A2222505A
:102290002B22D8901F321E321D32D8902036213684
:1022A00022362C2EEED7236E090E2C6E23501DA045
:1022B00006D02050292621502A2222502B22D890A5
:1022C0001F321E321D32D8902B322A3229322C2E48
:1022D000EED729C001F02AC002F02BC003F028C0BD
:1022E00004F02DC005F02AEC14F003C01FF002C06A
:1022F0001EF001C01DF012000F0E236E1DC024F051
:102300001EC025F01FC026F02328276E04D0D890C9
:10231000263225322432272EFAD724502C6E2C66F2
:1023200001D015D00F0E236E20C024F021C025F05F
:1023300022C026F02328276E04D0D89026322532DA
:102340002432272EFAD724502D6E2D6607D0000E8A
:102350001D6E000E1E6E000E1F6E4CD0000E296EFC
:10236000000E2A6E000E2B6E2D50890F2C5E1FC0A2
:102370002DF022502D1A800E2D161E8EFF0E1D16CA
:10238000FF0E1E16000E1F16218EFF0E2016FF0ECA
:102390002116000E2216236E180E286E2350D89098
:1023A00029362A362B3620501D5C21501E582250CB
:1023B0001F58D8A007D020501D5E21501E5A225011
:1023C0001F5A2980D8901D361E361F36282EE7D773
:1023D00029C001F02AC002F02BC003F02CC004F089
:1023E0002DC005F02AEC14F003C01FF002C01EF04F
:1023F00001C01DF0120058D0B3EC1BF0AAEC1CF089
:10240000B3EC1BF0AAEC1CF076EC19F06CD0AAEC43
:102410001CF0AAEC1CF0B3EC1BF0AAEC1CF076EC60
:1024200019F061D0AAEC1CF076EC19F05CD0B3EC9A
:102430001BF076EC19F057D0AAEC1CF0B3EC1BF0B3
:10244000AAEC1CF0AAEC1CF076EC19F04CD0B3EC22
:102450001BF0B3EC1BF0AAEC1CF0AAEC1CF076EC21
:1024600019F041D0B3EC1BF0B3EC1BF0AAEC1CF05C
:1024700076EC19F038D0AAEC1CF0B3EC1BF076EC3B
:1024800019F031D0AAEC1CF0AAEC1CF0B3EC1BF054
:1024900076EC19F028D0AAEC1CF0B3EC1BF0B3ECEE
:1024A0001BF076EC19F01FD00450410AD8B4E3D7E2
:1024B000020AD8B4A1D7060AD8B4B4D7030AD8B44C
:1024C000A6D7010AD8B4CED70B0AD8B4B5D7180A04
:1024D000D8B4ADD7010AD8B4D5D7020AD8B4DBD75F
:1024E0000D0AD8B4B4D7120041C001F042C002F0C6
:1024F000000E046E030E036E10EC1CF001503F241E
:10250000436E02504020446E43C0F6FF44C0F7FFC4
:102510000900F5CF45F00900F5CF46F00900F5CFE9
:1025200047F047C04AF046C049F045C048F042D0A5
:1025300048C020F049C021F04AC022F03CC01DF044
:102540003DC01EF03EC01FF0F4EC10F01FC030F094
:102550001EC02FF01DC02EF0000E046E030E036E81
:102560004106D8A0420641C001F042C002F010EC82
:102570001CF001503F24436E02504020446E43C083
:10258000F6FF44C0F7FF0900F5CF45F00900F5CF8D
:1025900046F00900F5CF47F047C033F046C032F0AF
:1025A00045C031F00BEC0BF030C04AF02FC049F0C1
:1025B0002EC048F042504110D8A4BAD748C03CF0D1
:1025C00049C03DF04AC03EF012000F0E0D6E09C02A
:1025D0000EF00AC00FF00BC010F00D28116E04D0E1
:1025E000D89010320F320E32112EFAD70E50176ECD
:1025F000176601D035D0170E0D6E09C00EF00AC057
:102600000FF00BC010F00D28116E04D0D8901032CE
:102610000F320E32112EFAD70E50126E0A8EFF0EA6
:102620000916FF0E0A16000E0B160950136E0A50FB
:10263000146E0B50156E166A8E0E175E17AE0DD007
:102640001750800A8F0FD8A00BD0D89016321532B1
:1026500014321332173EF9D714D0170E17640FD067
:10266000000E096E000E0A6E000E0B6E000E0C6E50
:102670001BD0D89013361436153616361706176643
:10268000F8D71250D8B408D0161E151E141E136C9D
:10269000000E14221522162213C009F014C00AF0ED
:1026A00015C00BF016C00CF01200096E000E0B6E78
:1026B000095008AE0CD0081E071E061E056C000E41
:1026C000062207220822096E010E0B6E095004AE85
:1026D0000AD0041E031E021E016C000E02220322F9
:1026E0000422010E0B1A000E0C6E000E0D6E000E71
:1026F0000E6E000E0F6E0850051006100710D8B4AD
:102700002CD0096E010E0A6E095006D0D8900536FD
:102710000636073608360A2A08AEF8D7D8900C369F
:102720000D360E360F360550015C06500258075024
:10273000035808500458D8A009D00550015E06502F
:10274000025A0750035A0850045A0C80D890083295
:102750000732063205320A2EE1D70B50D8B408D022
:102760000F1E0E1E0D1E0C6C000E0D220E220F22CF
:102770000CC001F00DC002F00EC003F00FC004F059
:10278000120084EC1AF07D6EF60E026E7D50F7ECAE
:1027900016F002C0BFF003C0C0F0BFC010F0C0C050
:1027A00011F085EC0DF07BC0D9FF7CC0DAFF10C0C2
:1027B000DEFF11C0DDFF59EC1AF07D6EF60E026EE1
:1027C0007D50F7EC16F002C0C1F003C0C2F0C1C0EA
:1027D00010F0C2C011F011EC03F020EE02F07B50BB
:1027E000D9267C50DA2210C0DEFF11C0DEFF12C0F5
:1027F000DEFF13C0DDFFD906D90620EE02F07B50C4
:10280000D9267C50DA22DECF3CF0DECF3DF0DECFA1
:102810003EF0DECF3FF0B1EC0EF020EE06F07B5044
:10282000D9267C50DA223CC0DEFF3DC0DEFF3EC030
:10283000DEFF3FC0DDFFD906D9061CEC0EF020EE0E
:102840000CF07B50D9267C50DA2270C0DEFF71C0BC
:10285000DDFF12000450D8B405D00150021003105F
:10286000D8A40CD0000E016E000E026E000E036E96
:102870004CD0042AD890033202320132000E0114E7
:10288000066E000E0214076EFE0E0314086E06504C
:1028900007100810D8B40CD0ECD7042A010E01267A
:1028A000000E0222000E0322D890033202320132BF
:1028B000000E0114066E000E0214076EFF0E0314C4
:1028C000086E065007100810D8B406D0E6D70406E4
:1028D000D89001360236033602AEF9D704A0029E24
:1028E000D89004320450086E076A066A0650011236
:1028F00007500212085003120550D8A4038E01C0DD
:1029000001F002C002F003C003F01200000E346EAA
:10291000000E336E306E0C0E016E30505EEC1DF00A
:10292000000E326E000E316E3250800A800F040E9F
:10293000D8B4315CD8B010D0BAEC1DF0B7EC1DF0B3
:102940000009D8A4FBD7B2EC1DF001503326025089
:102950003422314A322AE8D733C001F034C002F0C1
:10296000000E046E040E036E67EC16F001C033F027
:1029700002C034F0390E206E1C0E216E400E226E05
:1029800033C018F034C019F04FEC1BF01AC01FF020
:1029900019C01EF018C01DF0F4EC10F01FC00BF0B1
:1029A0001EC00AF01DC009F0E5EC12F009C033F0BA
:1029B0000AC034F033C02EF034C02FF01200000EE5
:1029C000346E000E336E306E080E016E30505EECC9
:1029D0001DF0000E326E000E316E3250800A800FF4
:1029E000040ED8B4315CD8B010D0BAEC1DF0B7ECFE
:1029F0001DF00009D8A4FBD7B2EC1DF0015033261E
:102A000002503422314A322AE8D733C001F034C0B0
:102A100002F0000E046E040E036E67EC16F001C0A7
:102A200033F002C034F0B80E206E9A0E216E410EC3
:102A3000226E33C018F034C019F04FEC1BF01AC0EE
:102A40001FF019C01EF018C01DF0F4EC10F01FC0EC
:102A50000BF01EC00AF01DC009F0E5EC12F009C031
:102A600033F00AC034F033C02EF034C02FF012001F
:102A700020EE06F01B50D9261C50DA22DECF10F0D3
:102A8000DECF11F0DECF12F0DECF13F0D4EC15F074
:102A90001BC0D9FF1CC0DAFFDECF10F0DECF11F073
:102AA000DECF12F0DECF13F0D4EC15F020EE04F000
:102AB0001B50D9261C50DA22DECF10F0DDCF11F0EA
:102AC00071EC1DF020EE0AF01B50D9261C50DA22C2
:102AD000DECF10F0DDCF11F071EC1DF020EE0EF026
:102AE0001B50D9261C50DA22DECF10F0DDCF11F0BA
:102AF00071EC1DF020EE0CF01B50D9261C50DA2290
:102B0000DECF10F0DDCF11F071EC1DF0120001EC02
:102B100018F03C0E0A24136E000E0B20146E000EEB
:102B2000166E000E156E818C000E186E000E176E5C
:102B30001850800A800F040ED8B4175CD8B009D0A2
:102B4000126E000E016E125053EC1DF0174A182A37
:102B5000EFD701EC18F00AC015F00BC016F0819CFD
:102B60001650800A126E1350155C1450800A1258C9
:102B7000D8B013D0126E010E00010001B76F1250D1
:102B8000126E470E106E12507EEC1CF0126E470E45
:102B9000046E1250FBEC11F006D0126E000E000114
:102BA0000001B76F1250120013C00FF09AEC1DF025
:102BB000146E000E196E1450100E146E10C015F025
:102BC00011C016F012C017F013C018F0146601D02F
:102BD00007D018341832173216321532142EF6D7A1
:102BE0001850151016101710D8B404D0146E010E1A
:102BF000196E145019C00FF09AEC1DF0146E000EEF
:102C00001A6E145011C014F012C015F013C016F053
:102C1000176A16BE17681750141015101610D8B47E
:102C200004D0146E010E1A6E14501AC00FF09AECF4
:102C30001DF010C00FF09AEC1DF012003AEC18F0E5
:102C40001A0E0A24136E000E0B20146E818E000ED5
:102C5000186E000E176E1850800A800F040ED8B43C
:102C6000175CD8B009D0126E000E016E125053ECF2
:102C70001DF0174A182AEFD73AEC18F00AC015F0E1
:102C80000BC016F0819E1650800A126E1350155C10
:102C90001450800A1258D8B013D0126E010E0001E1
:102CA0000001B66F1250126E410E106E12507EEC83
:102CB0001CF0126E410E046E1250FBEC11F006D0A7
:102CC000126E000E00010001B66F12501200056E68
:102CD000000E076E055004AE08D0036C041ED8B079
:102CE000042A056E010E076E055002AE06D0016C77
:102CF000021ED8B0022A010E071A000E096E000E3D
:102D0000086E04500310D8B41ED0056E010E066E76
:102D1000055004D0D89003360436062A04AEFAD7FC
:102D2000D890083609360350015C04500258D8A0E8
:102D300005D00350015E0450025A0880D890043236
:102D40000332062EEDD70750D8B404D0086C091E04
:102D5000D8B0092A08C001F009C002F012000EAE76
:102D600016D00CC012F00DC013F00EC014F0121EDD
:102D7000131E141E122A000E13221422000E1224F7
:102D80000C6E000E13200D6E800E14200E6E11AE10
:102D900016D00FC012F010C013F011C014F0121EA4
:102DA000131E141E122A000E13221422000E1224C7
:102DB0000F6E000E1320106E800E1420116E000E88
:102DC0000C1A000E0D1A800E0E1A000E0F1A000EAD
:102DD000101A800E111A0F500C5C10500D58115023
:102DE0000E58D8B002D0D89001D0D8801200A7ECED
:102DF0001DF0C580C5B0FED7C5B0FED7046EEE0E7F
:102E0000016E0450AFEC1AF0A7EC1DF002C001F007
:102E1000AFEC1AF0A7EC1DF0C582C5B2FED7C5B263
:102E2000FED7046E010E076E045007C001F0AFEC30
:102E30001AF0C7A0FED720EC1DF0046E0450056EFA
:102E4000066A0550066E056AC59AC588C5B8FED7DC
:102E5000C7A0FED720EC1DF0046E04500526000E1E
:102E60000622C58AC588C5B8FED7C584C5B4FED7B5
:102E700005C002F006C003F01200000E0A6E000E3C
:102E80000B6E000E0C6E000E0D6E08500510061035
:102E90000710D8B42CD0096E010E0E6E095006D062
:102EA000D89005360636073608360E2A08AEF8D70B
:102EB000D8900A360B360C360D360550015C06509C
:102EC00002580750035808500458D8A009D005509C
:102ED000015E0650025A0750035A0850045A0A80ED
:102EE000D89008320732063205320E2EE1D70AC0DA
:102EF00001F00BC002F00CC003F00DC004F0120092
:102F0000146E000E196E1450146E8E0E186E14503E
:102F100013AE13D0131E121E111E106C000E1122C0
:102F200012221322146E010E196E145006D0D8907E
:102F30001332123211321032182A000E1014146E8D
:102F4000000E1114156E000E1214166EFF0E1314DF
:102F5000176E1750141015101610D8A4E8D710C00B
:102F600001F011C002F012C003F018C004F019C043
:102F700005F02AEC14F003C012F002C011F001C0F9
:102F800010F0120030C018F031C019F04FEC1BF0F7
:102F90001AC01FF019C01EF018C01DF0000E206EE0
:102FA0007A0E216E440E226E7CEC11F01FC034F0BC
:102FB0001EC033F01DC032F032C020F033C021F00B
:102FC00034C022F02EC018F02FC019F04FEC1BF0C7
:102FD0001AC01FF019C01EF018C01DF0F4EC10F05C
:102FE0001FC00BF01EC00AF01DC009F0E5EC12F086
:102FF00009C035F00AC036F035C02EF036C02FF0CB
:103000001200000E106E000E0F6E0C6E870E016E19
:103010000C505EEC1DF0000E0E6E000E0D6E0E508C
:10302000800A800F040ED8B40D5CD8B010D0BAEC72
:103030001DF0B7EC1DF00009D8A4FBD7B2EC1DF0D1
:1030400001500F26025010220D4A0E2AE8D70FC059
:1030500001F010C002F0000E046E040E036E67EC67
:1030600016F001C00FF002C010F00FC00AF010C03F
:103070000BF01200000E106E000E0F6E0C6E830E21
:10308000016E0C505EEC1DF0000E0E6E000E0D6E0B
:103090000E50800A800F040ED8B40D5CD8B010D04A
:1030A000BAEC1DF0B7EC1DF00009D8A4FBD7B2ECC8
:1030B0001DF001500F26025010220D4A0E2AE8D7AB
:1030C0000FC001F010C002F0000E046E040E036E7B
:1030D00067EC16F001C00FF002C010F00FC00AF04C
:1030E00010C00BF01200C580C5B0FED7046E160EDE
:1030F000016E0450AFEC1AF002C001F0AFEC1AF010
:10310000C582C5B2FED7046E170E016E0450AFEC37
:103110001AF0C7A0FED720EC1DF0046E0450076E15
:10312000086AC59AC588C5B8FED7C7A0FED720ECE7
:103130001DF0046E0450066E056A05500712065015
:103140000812C59AC588C5B8FED7C584C5A41200A3
:10315000FDD7DFEC14F037C0D9FF38C0DAFF2EC03E
:10316000DEFF2FC0DDFF86EC14F020EE02F03750BA
:10317000D9263850DA222EC0DEFF2FC0DDFF37C03F
:10318000D9FF38C0DAFFDECF2EF0DDCF2FF020EEF2
:1031900002F03750D9263850DA22DECF30F0DDCFBA
:1031A00031F0C2EC17F020EE04F03750D926385039
:1031B000DA222EC0DEFF2FC0DDFF120001EE00F08C
:1031C000300EEE6AE806FDE100EE80F03F0EEE6A9A
:1031D000E806FDE17F6A7E6ACA0EF66E390EF76E6A
:1031E000000EF86E01EE30F010EE1FF00900F5CF82
:1031F000EEFFE550E150FAE1420EF66E3B0EF76E3F
:10320000000EF86E00EEE9F010EE0CF00900F5CFBC
:10321000EEFFE550E150FAE1000EF86E0001CDEF4F
:1032200005F0000E126E000E116E1250800A800F13
:10323000040ED8B4115CD8B011D08280106E000E8C
:10324000016E105053EC1DF08290106E000E016E56
:10325000105053EC1DF0114A122AE7D7000E126EDF
:10326000000E116E1250800A800F030ED8B4115C4C
:10327000D8B009D0106E2B0E0F6E10509AEC1DF0C6
:10328000114A122AEFD71200ADEC1DF0066E06505F
:103290000D6E0E6A0F6A106AADEC1DF0066E0650D8
:1032A0000D12ADEC1DF0066E0650086E076A07C0E1
:1032B00009F008C00AF0000E0ABEFF0E0B6E0C6E7D
:1032C00009500D120A500E120B500F120C50101212
:1032D000ADEC1DF0066E06500D120DC002F00EC0D2
:1032E00003F00FC004F010C005F01200036E000ED2
:1032F000016E035053EC1DF0036E000E016E03507F
:1033000053EC1DF0036E000E016E035053EC1DF0E4
:10331000036E000E016E035053EC1DF0036E000EA1
:10332000016E035053EC1DF0036E000E016E03504E
:1033300053EC1DF0036E000E016E035053EC1DF0B4
:10334000036E000E016E035053EC1DF01200000ED0
:10335000AC6E000EAB6E01B0AC8801A202D0AC8C9A
:10336000AB8C01B4AC8E01A602D0AB8801D0AB8A85
:1033700001B8AC849E9801BAAB8601AC02D09D8A9C
:1033800001D09D9A9E9A01AE02D09D8801D09D9851
:1033900002C0AFFF0350B06EAC8AAB8E949C948E8B
:1033A000ACB8ACBE01D0948C1200000EC26E000E00
:1033B000C06ED89002303C0BC26E02C004F0043ADA
:1033C000F00E0416300E041603500F0B0410C16EDD
:1033D00001C004F0D8900436D8900436380E041694
:1033E00001C005F0053A0F0E0516070E051601502F
:1033F000800B05100410C06E02AE03D09E9C9D8C05
:10340000F28CC2801200000E0D6E000E0C6E0A507F
:103410000910D8B41ED00B6E010E0E6E0B5004D0E6
:10342000D89009360A360E2A0AAEFAD7D8900C364A
:103430000D360950075C0A500858D8A005D009502D
:10344000075E0A50085A0C80D8900A3209320E2EB4
:10345000EDD70CC007F00DC008F01200000E096E89
:10346000000E0A6E000E0B6E000E0C6E01A008D04E
:103470000550092606500A2207500B2208500C223C
:10348000D8900536063607360836D890043203320F
:10349000023201320450011002100310D8A4E6D702
:1034A00009C001F00AC002F00BC003F00CC004F028
:1034B0001200A7EC1DF0C580C5B0FED7C5B0FED781
:1034C000026EEE0E016E0250AFEC1AF0A7EC1DF08A
:1034D000026EF40E016E0250AFEC1AF0A7EC1DF074
:1034E000026EB40E016E0250AFEC1AF0A7EC1DF0A4
:1034F000C584C5B4FED7C5B4FED7026E010E016EF9
:10350000025093EC1DF01200A7EC1DF0C580C5B071
:10351000FED7C5B0FED7026EEE0E016E0250AFECC4
:103520001AF0A7EC1DF0026EF40E016E0250AFEC23
:103530001AF0A7EC1DF0026E2E0E016E0250AFECD9
:103540001AF0A7EC1DF0C584C5B4FED7C5B4FED7EC
:10355000026E010E016E025093EC1DF0120001C0CC
:10356000C9FFC6AE02D0FF0E24D0C6500F0B080A0A
:10357000D8B40CD0C6500F0B0B0AD8B407D0C688ED
:103580009EA6FED7C7A4C7B013D010D0C6500F0B4D
:10359000080AD8B405D0C6500F0B0B0AD8A409D01E
:1035A000C7B0FED7A7EC1DF0C5AC02D0FE0E01D00F
:1035B000000E1200000E126E000E116E000E146E40
:1035C000000E136E1450800A800F040ED8B4135CE2
:1035D000D8B009D001EC18F00A5011260B50122275
:1035E000134A142AEFD711C001F012C002F0000EE6
:1035F000046E040E036E67EC16F001C0EDF002C01D
:10360000EEF083EC1DF01200000E126E000E116E33
:10361000000E146E000E136E1450800A800F040EFC
:10362000D8B4135CD8B009D03AEC18F00A5011267F
:103630000B501222134A142AEFD711C001F012C006
:1036400002F0000E046E040E036E67EC16F001C06B
:10365000E9F002C0EAF0120004500310D8B41AD006
:10366000056E010E066E055004D0D8900336043660
:10367000062A04AEFAD70350015C04500258D8A0C1
:1036800004D00350015E0450025AD8900432033231
:10369000062EF1D701C001F002C002F012001B6E2D
:1036A000000E1C6E1B5019AE08D0186C191ED8B035
:1036B000192A1B6E010E1C6E1B5018C001F019C098
:1036C00002F0036A1B6E8E0E046E1B501CC005F0C8
:1036D0002AEC14F003C01AF002C019F001C018F06F
:1036E00012001750800A800F05E1000E165C02E1FF
:1036F000000E155CD8B00FD015C009F016C00AF046
:1037000017C00BF0D2EC1CF00BC017F00AC016F07B
:1037100009C015F006D015C015F016C016F017C078
:1037200017F0120011EC19F0146E520E106E1450B6
:10373000156E500E116E1550166EFF0E126E16504D
:103740002EEC1DF0146E440E106E1450156E390ED2
:10375000116E1550166E010E126E16502EEC1DF0E5
:1037600095EC1CF012008282036E000E016E035075
:1037700053EC1DF0036E000E016E035053EC1DF070
:10378000036E000E016E035053EC1DF0036E000E2D
:10379000016E035053EC1DF08292036E000E016E19
:1037A000035053EC1DF0120042C0D9FF43C0DAFFB2
:1037B000DECF3CF0DECF3DF0DDCF3EF044C03FF049
:1037C00045C040F046C041F048EC1CF042C0D9FF73
:1037D00043C0DAFF3CC0DEFF3DC0DEFF3EC0DDFF80
:1037E000DD5212002EC0D9FF2FC0DAFFDECF1DF050
:1037F000DECF1EF0DDCF1FF030C020F031C021F051
:1038000032C022F0F4EC10F02EC0D9FF2FC0DAFF46
:103810001DC0DEFF1EC0DEFF1FC0DDFFDD52120037
:1038200001500302F3CF05F0F4CF06F0015004027B
:10383000F3CFF4FFF36AF3500526F450062202504A
:103840000302F3CFF4FFF36AF3500526F450062287
:1038500005C001F006C002F01200000E136E000E4B
:10386000126E0CD012501024D96E13501120DA6E43
:10387000DF500F6E9AEC1DF0124A132A12501024DA
:10388000D96E13501120DA6EDF50D8B41200EAD787
:10389000000E3F1A000E401A800E411A3CC02EF056
:1038A0003DC02FF03EC030F03FC031F040C032F09C
:1038B00041C033F00BEC0BF030C03EF02FC03DF0B8
:1038C0002EC03CF01200C580C5B0FED7046E160EA7
:1038D000016E0450AFEC1AF0046E500E016E0450ED
:1038E000AFEC1AF002C001F0AFEC1AF003C001F027
:1038F000AFEC1AF0C584C5A41200FDD7116E450EB9
:103900000F6E11509AEC1DF0116E520E0F6E115089
:103910009AEC1DF0116E520E0F6E11509AEC1DF0C4
:1039200010C00FF09AEC1DF01200126E430E106ED4
:103930001250136E4E0E116E13507AEC1DF0126E73
:10394000000E106E1250136E0D0E116E13507AECA5
:103950001DF012008282036E000E016E035053ECC4
:103960001DF0036E000E016E035053EC1DF08292A9
:10397000036E000E016E035053EC1DF012007F50D9
:10398000D8A402D0010E01D0000E7F6E7FC001F0DE
:10399000010E0116013A014680500118DF0B011893
:1039A000806E12007F0E0B140A100910D8B406D0D6
:1039B000000E091A000E0A1A800E0B1A09C009F02F
:1039C0000AC00AF00BC00BF0120020202020204378
:1039D00068616E6E656C2032203D20004368616E28
:1039E0006E656C2031203D200000F20E7E16ABACDF
:1039F00003D07E90ABB07E80ABB47E84ABB27E86CB
:103A0000AECF01F001501200ADEC1DF0066E056A5C
:103A1000ADEC1DF0046E0450051205C002F006C0A6
:103A200003F012003F0EC716000EC66E000EC56EE4
:103A30000150C6120250C71294869488C68A12009A
:103A4000C6500F0B080AD8B404D0C6500F0B0B0A8F
:103A5000D8B4C586C7A0FED7C950120010C00FF059
:103A60009AEC1DF011C00FF09AEC1DF012C00FF08F
:103A70009AEC1DF01200036E080E016E0350046EE6
:103A8000800E026E045012EC1DF0D00EC86E1200B3
:103A9000046E7C0E016E0450000E036EC40E026EA6
:103AA000A7EC19F012000D0E026EFB0EE82EFED7E9
:103AB000022EFCD700D0012EF6D71200C2CF02F0A2
:103AC000C30E0216D89001303C0B0210C26E1200D9
:103AD000CD80CD92CD84CD96300ECD12CD9CCD9E95
:103AE000120011500F6E9AEC1DF010C00FF09AECFE
:103AF0001DF0120010C00FF09AEC1DF011C00FF075
:103B00009AEC1DF01200D58ED59CD59AD596D5800D
:103B1000D582D5841200ACAC03D0AC907EB2AC8020
:103B200001C0ADFF1200030EE82EFED700F0012EFB
:103B3000FAD71200ACA2FED70FC001F08BEC1DF03B
:103B40001200000200010002B90022011201C5505A
:103B50001F0BD8B4C7B4FBD712009EAAFED7F5EC52
:103B60001CF01200C450026EC350016E1200C2302D
:083B7000010B1200C2821200D9
:020000040020DA
:08000000FFFFFFFFFFFFFFFF00
:020000040030CA
:0E000000FF061F10FF8381FF0FC00FE00F40AF
:00000001FF
